:100000000C945C000C9479000C9479000C947900A9
:100010000C9479000C9479000C9479000C9479007C
:100020000C9479000C9479000C9479000C9479006C
:100030000C9479000C9479000C9479000C9479005C
:100040000C94CB010C9479000C9479000C947900F9
:100050000C9479000C9479000C9479000C9479003C
:100060000C9479000C947900000000080002010053
:100070000003040700000000000000000102040863
:100080001020408001020408102001020408102002
:10009000040404040404040402020202020203032E
:1000A0000303030300000000250028002B000000CC
:1000B0000000240027002A0011241FBECFEFD8E043
:1000C000DEBFCDBF11E0A0E0B1E0E4EAF4E002C0A1
:1000D00005900D92AA30B107D9F721E0AAE0B1E06E
:1000E00001C01D92A531B207E1F70E94BC010C943A
:1000F00050020C94000061E0809106010E944C01C6
:1001000061E0809104010E944C0161E08091020154
:100110000C944C01809100010E94A70097FD03966A
:10012000BC01759567957595679570930B01609304
:100130000A01809102010E94C40061E080910601E1
:100140000E94850160E0809104010C9485018E304D
:1001500008F08E5087702091080190E4299F90014B
:100160001124822B80937C0080917A00806480939C
:100170007A0080917A0086FDFCCF809178002091F2
:10018000790090E0922B08951F93CF93DF93182F5F
:10019000EB0161E00E944C01209711F460E004C083
:1001A000CF3FD10539F461E0812FDF91CF911F91CD
:1001B0000C948501E12FF0E0E859FF4FE491E33022
:1001C000F9F048F4E130B9F0E230A1F584B580628D
:1001D00084BDC8BD34C0E730E9F0E83019F1E4303F
:1001E00049F580918000806280938000D0938B00DD
:1001F000C0938A0024C084B5806884BDC7BD1FC079
:1002000080918000806880938000D0938900C093A3
:10021000880015C08091B00080688093B000C093C2
:10022000B3000DC08091B00080628093B000C09395
:10023000B40005C0C038D1050CF0B5CFAFCFDF9109
:10024000CF911F910895833081F028F4813099F087
:100250008230A1F008958730A9F08830B9F0843059
:10026000D1F4809180008F7D03C0809180008F77D2
:1002700080938000089584B58F7702C084B58F7D08
:1002800084BD08958091B0008F7703C08091B00045
:100290008F7D8093B0000895CF93DF9390E0FC01B1
:1002A000E458FF4F2491FC01E057FF4F84918823CD
:1002B00049F190E0880F991FFC01E255FF4FA5918D
:1002C000B4918C559F4FFC01C591D4919FB761119A
:1002D00008C0F8948C91209582238C938881822386
:1002E0000AC0623051F4F8948C91322F30958323F8
:1002F0008C938881822B888304C0F8948C91822B04
:100300008C939FBFDF91CF9108950F931F93CF934D
:10031000DF931F92CDB7DEB7282F30E0F901E859FF
:10032000FF4F8491F901E458FF4F1491F901E05710
:10033000FF4F04910023C9F0882321F069830E94B4
:1003400023016981E02FF0E0EE0FFF1FEC55FF4F16
:10035000A591B4919FB7F8948C91611103C0109549
:10036000812301C0812B8C939FBF0F90DF91CF9190
:100370001F910F91089508950E9415020E94BB01DC
:100380000E947B00C0E0D0E00E948A002097E1F349
:100390000E940000F9CF1F920F920FB60F92112406
:1003A0002F933F938F939F93AF93BF9380910D01B2
:1003B00090910E01A0910F01B091100130910C01AC
:1003C00023E0230F2D3720F40196A11DB11D05C098
:1003D00026E8230F0296A11DB11D20930C018093E6
:1003E0000D0190930E01A0930F01B0931001809125
:1003F000110190911201A0911301B0911401019685
:10040000A11DB11D8093110190931201A0931301BE
:10041000B0931401BF91AF919F918F913F912F9114
:100420000F900FBE0F901F901895789484B582603E
:1004300084BD84B5816084BD85B5826085BD85B588
:10044000816085BDEEE6F0E0808181608083E1E837
:10045000F0E010828081826080838081816080836F
:10046000E0E8F0E0808181608083E1EBF0E0808172
:1004700084608083E0EBF0E0808181608083EAE744
:10048000F0E08081846080838081826080838081CD
:10049000816080838081806880831092C10008958C
:0404A000F894FFCFFE
:0A04A4000E0009000C000D0001001D
:107E0000112484B714BE81FFF0D085E080938100F7
:107E100082E08093C00088E18093C10086E0809377
:107E2000C20080E18093C4008EE0C9D0259A86E02C
:107E300020E33CEF91E0309385002093840096BBD3
:107E4000B09BFECF1D9AA8958150A9F7CC24DD24C4
:107E500088248394B5E0AB2EA1E19A2EF3E0BF2EE7
:107E6000A2D0813461F49FD0082FAFD0023811F036
:107E7000013811F484E001C083E08DD089C08234E0
:107E800011F484E103C0853419F485E0A6D080C0E4
:107E9000853579F488D0E82EFF2485D0082F10E0AE
:107EA000102F00270E291F29000F111F8ED06801E7
:107EB0006FC0863521F484E090D080E0DECF843638
:107EC00009F040C070D06FD0082F6DD080E0C81688
:107ED00080E7D80618F4F601B7BEE895C0E0D1E017
:107EE00062D089930C17E1F7F0E0CF16F0E7DF06D8
:107EF00018F0F601B7BEE89568D007B600FCFDCFD4
:107F0000A601A0E0B1E02C9130E011968C91119780
:107F100090E0982F8827822B932B1296FA010C0160
:107F200087BEE89511244E5F5F4FF1E0A038BF0790
:107F300051F7F601A7BEE89507B600FCFDCF97BE46
:107F4000E89526C08437B1F42ED02DD0F82E2BD052
:107F50003CD0F601EF2C8F010F5F1F4F84911BD097
:107F6000EA94F801C1F70894C11CD11CFA94CF0C13
:107F7000D11C0EC0853739F428D08EE10CD085E9AC
:107F80000AD08FE07ACF813511F488E018D01DD067
:107F900080E101D065CF982F8091C00085FFFCCF94
:107FA0009093C60008958091C00087FFFCCF809118
:107FB000C00084FD01C0A8958091C6000895E0E648
:107FC000F0E098E1908380830895EDDF803219F02E
:107FD00088E0F5DFFFCF84E1DECF1F93182FE3DFCA
:107FE0001150E9F7F2DF1F91089580E0E8DFEE27F6
:047FF000FF270994CA
:027FFE00040479
:0400000300007E007B
:00000001FF
