:100000000C945C000C9479000C9479000C947900A9
:100010000C9479000C9479000C9479000C9479007C
:100020000C9479000C9479000C9479000C9479006C
:100030000C9479000C9479000C9479000C9479005C
:100040000C94CB010C9479000C9479000C947900F9
:100050000C9479000C9479000C9479000C9479003C
:100060000C9479000C947900000000080002010053
:100070000003040700000000000000000102040863
:100080001020408001020408102001020408102002
:10009000040404040404040402020202020203032E
:1000A0000303030300000000250028002B000000CC
:1000B0000000240027002A0011241FBECFEFD8E043
:1000C000DEBFCDBF11E0A0E0B1E0E4EAF4E002C0A1
:1000D00005900D92AA30B107D9F721E0AAE0B1E06E
:1000E00001C01D92A531B207E1F70E94BC010C943A
:1000F00050020C94000061E0809106010E944C01C6
:1001000061E0809104010E944C0161E08091020154
:100110000C944C01809100010E94A70097FD03966A
:10012000BC01759567957595679570930B01609304
:100130000A01809102010E94C40061E080910601E1
:100140000E94850160E0809104010C9485018E304D
:1001500008F08E5087702091080190E4299F90014B
:100160001124822B80937C0080917A00806480939C
:100170007A0080917A0086FDFCCF809178002091F2
:10018000790090E0922B08951F93CF93DF93182F5F
:10019000EB0161E00E944C01209711F460E004C083
:1001A000CF3FD10539F461E0812FDF91CF911F91CD
:1001B0000C948501E12FF0E0E859FF4FE491E33022
:1001C000F9F048F4E130B9F0E230A1F584B580628D
:1001D00084BDC8BD34C0E730E9F0E83019F1E4303F
:1001E00049F580918000806280938000D0938B00DD
:1001F000C0938A0024C084B5806884BDC7BD1FC079
:1002000080918000806880938000D0938900C093A3
:10021000880015C08091B00080688093B000C093C2
:10022000B3000DC08091B00080628093B000C09395
:10023000B40005C0C038D1050CF0B5CFAFCFDF9109
:10024000CF911F910895833081F028F4813099F087
:100250008230A1F008958730A9F08830B9F0843059
:10026000D1F4809180008F7D03C0809180008F77D2
:1002700080938000089584B58F7702C084B58F7D08
:1002800084BD08958091B0008F7703C08091B00045
:100290008F7D8093B0000895CF93DF9390E0FC01B1
:1002A000E458FF4F2491FC01E057FF4F84918823CD
:1002B00049F190E0880F991FFC01E255FF4FA5918D
:1002C000B4918C559F4FFC01C591D4919FB761119A
:1002D00008C0F8948C91209582238C938881822386
:1002E0000AC0623051F4F8948C91322F30958323F8
:1002F0008C938881822B888304C0F8948C91822B04
:100300008C939FBFDF91CF9108950F931F93CF934D
:10031000DF931F92CDB7DEB7282F30E0F901E859FF
:10032000FF4F8491F901E458FF4F1491F901E05710
:10033000FF4F04910023C9F0882321F069830E94B4
:1003400023016981E02FF0E0EE0FFF1FEC55FF4F16
:10035000A591B4919FB7F8948C91611103C0109549
:10036000812301C0812B8C939FBF0F90DF91CF9190
:100370001F910F91089508950E9415020E94BB01DC
:100380000E947B00C0E0D0E00E948A002097E1F349
:100390000E940000F9CF1F920F920FB60F92112406
:1003A0002F933F938F939F93AF93BF9380910D01B2
:1003B00090910E01A0910F01B091100130910C01AC
:1003C00023E0230F2D3720F40196A11DB11D05C098
:1003D00026E8230F0296A11DB11D20930C018093E6
:1003E0000D0190930E01A0930F01B0931001809125
:1003F000110190911201A0911301B0911401019685
:10040000A11DB11D8093110190931201A0931301BE
:10041000B0931401BF91AF919F918F913F912F9114
:100420000F900FBE0F901F901895789484B582603E
:1004300084BD84B5816084BD85B5826085BD85B588
:10044000816085BDEEE6F0E0808181608083E1E837
:10045000F0E010828081826080838081816080836F
:10046000E0E8F0E0808181608083E1EBF0E0808172
:1004700084608083E0EBF0E0808181608083EAE744
:10048000F0E08081846080838081826080838081CD
:10049000816080838081806880831092C10008958C
:0404A000F894FFCFFE
:0A04A4000E0009000C000D0001001D
:00000001FF
