:100000000C9468000C9490000C9490000C94900058
:100010000C9490000C9490000C9490000C94900020
:100020000C9490000C9490000C9490000C94900010
:100030000C9490000C9490000C9490000C94900000
:100040000C9499020C9490000C9446050C9478053D
:100050000C9490000C9490000C9490000C949000E0
:100060000C9490000C949000A101A701B101BF0174
:10007000C101C701D101DF01F101F3010000000856
:10008000000201000003040700000000000000005F
:10009000010204081020408001020408102001021F
:1000A00004081020040404040404040402020202EC
:1000B00002020303030303030000000025002800DD
:1000C0002B0000000000240027002A00BB00A80528
:1000D00011241FBECFEFD8E0DEBFCDBF11E0A0E0FE
:1000E000B1E0EAE2FDE002C005900D92A031B10757
:1000F000D9F721E0A0E1B1E001C01D92A03DB20717
:10010000E1F710E0C0EDD0E004C02297FE010E94AC
:100110007B06CC3CD107C9F70E9414060C949306C9
:100120000C9400004AE050E060E070E080E191E073
:100130000E94090126E040E855E260E070E083E3B8
:1001400091E00C94E40468E270E080E191E00E94A8
:10015000100268E572E080E090E00E94060368ED1E
:100160007FEF80E191E00E94100268E572E080E09C
:1001700090E00C940603EF92FF920F931F938BE095
:10018000E82EF12C0AE010E029E030E048E050E0F1
:1001900064E070E080E191E00E94D3001F910F9134
:1001A000FF90EF900895EF92FF920F931F93CF93DC
:1001B000DF93EC01842F1B861A86198218821E8A0F
:1001C0001F8A188E198E7F836E834C875D873F87C9
:1001D0002E87198B088BFB8AEA8A61E00E949203C2
:1001E00061E08E850E94920361E088890E949203FB
:1001F00061E08A890E9492031D8A1C8A84E090E053
:1002000099878887DF91CF911F910F91FF90EF9091
:100210000895CF92DF92EF92FF92CF93DF93EC019C
:100220006A017B012E813F81442737FD4095542F81
:1002300060E077E883E993E00E945A06CA01B901B9
:10024000A70196010E945A062A833B834C835D8353
:10025000DF91CF91FF90EF90DF90CF9008950F93B3
:100260001F93CF93DF93EC018B01888599850297CB
:10027000F9F46130710571F02CF461157105C1F468
:1002800060E009C06230710559F06330710581F496
:1002900060E007C061E08C850E94CB0361E005C08F
:1002A00061E08C850E94CB0360E08E850E94CB03C9
:1002B000888599850497B9F501301105B1F04CF4A2
:1002C0000115110581F561E08C850E94CB0360E08A
:1002D00011C002301105B9F00330110521F561E0BC
:1002E0008C850E94CB0360E013C060E08C850E9487
:1002F000CB0361E08E850E94CB0361E088890E9478
:10030000CB0360E00DC060E08C850E94CB0361E010
:100310008E850E94CB0360E088890E94CB0361E058
:100320008A890E94CB0388859985059709F073C057
:100330000A30110508F06FC0F801EC5CFF4F0C9417
:10034000790660E08C850E94CB0361E051C060E0DB
:100350008C850E94CB0361E08E850E94CB0360E018
:100360004BC060E08C850E94CB0361E08E850E94CB
:10037000CB0360E088890E94CB0361E041C060E06C
:1003800001C061E08C850E94CB0361E005C061E0A3
:100390008C850E94CB0360E08E850E94CB0360E0D9
:1003A00009C061E08C850E94CB0360E08E850E94CD
:1003B000CB0361E088890E94CB0361E00DC061E05E
:1003C0008C850E94CB0360E08E850E94CB0361E0A8
:1003D00088890E94CB0360E08A890E94CB0360E099
:1003E00013C061E001C060E08C850E94CB0360E037
:1003F0008E850E94CB0361E088890E94CB0360E078
:100400008A890E94CB0361E08C89DF91CF911F9193
:100410000F910C94CB03DF91CF911F910F91089511
:100420004F925F926F927F928F929F92AF92BF9204
:10043000CF92DF92EF92FF920F931F93CF93DF93B0
:10044000EC01CB0177FF04C088279927861B970B07
:100450006C01161617062CF481E090E099838883CE
:1004600004C0672B11F01982188204E010E08AE0C2
:10047000E82EF12CC114D10409F44AC00E94E30211
:100480008E889F88A88CB98C2B013C01481859088C
:100490006A087B088A809B80AC80BD804814590420
:1004A0006A047B0458F36E8B7F8B888F998F288129
:1004B00039818A859B852130310559F401969B87C6
:1004C0008A872E813F818217930771F41B861A86D3
:1004D0000BC0892B21F48E819F819B878A878A8517
:1004E0009B8501979B878A8781E0C81AD108288558
:1004F00039858A859B852530310511F4B70101C006
:10050000B8010E942406BC01CE010E942F01B2CF87
:10051000DF91CF911F910F91FF90EF90DF90CF90DF
:10052000BF90AF909F908F907F906F905F904F9013
:1005300008951F920F920FB60F9211242F933F939D
:100540008F939F93AF93BF9380912B0190912C0138
:10055000A0912D01B0912E0130912A0123E0230FAB
:100560002D3720F40196A11DB11D05C026E8230FEB
:100570000296A11DB11D20932A0180932B01909317
:100580002C01A0932D01B0932E0180912F01909109
:100590003001A0913101B09132010196A11DB11D30
:1005A00080932F0190933001A0933101B0933201D9
:1005B000BF91AF919F918F913F912F910F900FBE5F
:1005C0000F901F9018953FB7F89480912F0190914C
:1005D0003001A0913101B091320126B5A89B05C030
:1005E0002F3F19F00196A11DB11D3FBF6627782F3F
:1005F000892F9A2F620F711D811D911D42E0660F98
:10060000771F881F991F4A95D1F70895CF92DF92DF
:10061000EF92FF92CF93DF936B017C010E94E30284
:10062000EB01C114D104E104F10489F00E94230616
:100630000E94E3026C1B7D0B683E734090F381E0E7
:10064000C81AD108E108F108C851DC4FEACFDF91A0
:10065000CF91FF90EF90DF90CF900895789484B57C
:10066000826084BD84B5816084BD85B5826085BDAE
:1006700085B5816085BDEEE6F0E080818160808394
:10068000E1E8F0E010828081826080838081816077
:100690008083E0E8F0E0808181608083E1EBF0E03E
:1006A000808184608083E0EBF0E0808181608083E2
:1006B000EAE7F0E0808184608083808182608083CB
:1006C0008081816080838081806880831092C100F6
:1006D0000895833081F028F4813099F08230A1F0C0
:1006E00008958730A9F08830B9F08430D1F4809132
:1006F00080008F7D03C0809180008F778093800081
:10070000089584B58F7702C084B58F7D84BD089528
:100710008091B0008F7703C08091B0008F7D80936F
:10072000B0000895CF93DF9390E0FC01E057FF4FB6
:100730002491FC01EC55FF4F8491882349F190E00E
:10074000880F991FFC01EE53FF4FA591B491885477
:100750009F4FFC01C591D4919FB7611108C0F894D7
:100760008C91209582238C93888182230AC06230E9
:1007700051F4F8948C91322F309583238C93888197
:10078000822B888304C0F8948C91822B8C939FBF1A
:10079000DF91CF9108950F931F93CF93DF931F9213
:1007A000CDB7DEB7282F30E0F901E458FF4F849130
:1007B000F901E057FF4F1491F901EC55FF4F0491F7
:1007C0000023C9F0882321F069830E9469036981AD
:1007D000E02FF0E0EE0FFF1FE854FF4FA591B4911A
:1007E0009FB7F8948C91611103C01095812301C0CB
:1007F000812B8C939FBF0F90DF91CF911F910F9111
:100800000895FC01818D228D90E0805C9F4F821BBA
:1008100091098F7399270895FC01918D828D981706
:1008200031F0828DE80FF11D858D90E008958FEFF6
:100830009FEF0895FC01918D828D981761F0828D54
:10084000DF01A80FB11D5D968C91928D9F5F9F7304
:10085000928F90E008958FEF9FEF08958EE995E0D5
:10086000892B49F080E090E0892B29F00E949E05B9
:1008700081110C9400000895FC01848DDF01A80F04
:10088000B11DA35ABF4F2C91848D90E001968F73B8
:100890009927848FA689B7892C93A089B1898C91D7
:1008A00080648C93938D848D981306C00288F3899D
:1008B000E02D80818F7D80830895CF93DF93EC01BD
:1008C000888D8823C9F0EA89FB89808185FD05C070
:1008D000A889B9898C9186FD0FC00FB607FCF5CFAA
:1008E000808185FFF2CFA889B9898C9185FFEDCFF2
:1008F000CE010E943C04E7CFDF91CF910895CF92C3
:10090000DF92FF920F931F93CF93DF931F92CDB788
:10091000DEB76C0181E0D60158968C9358975B96B0
:100920009C915B975C968C915C97981307C050964E
:10093000ED91FC915197808185FD2EC0F601038DCC
:1009400010E00F5F1F4F0F731127F02EF601848DFB
:10095000F81211C00FB607FCF9CFD6015096ED91F1
:10096000FC915197808185FFF1CFC60169830E9478
:100970003C046981EBCF838DE80FF11DE35AFF4FF3
:100980006083D6015B960C935B975296ED91FC9138
:100990005397808180620CC0D6015696ED91FC91F0
:1009A000579760835096ED91FC91519780818064B8
:1009B000808381E090E00F90DF91CF911F910F91A4
:1009C000FF90DF90CF900895BF92CF92DF92EF9289
:1009D000FF92CF93DF93EC016A017B01B22EE8898D
:1009E000F98982E08083411581EE58076105710520
:1009F000A1F060E079E08DE390E0A70196010E940C
:100A000038062150310941095109569547953795C6
:100A10002795211580E1380798F0E889F989108237
:100A200060E874E88EE190E0A70196010E94380624
:100A30002150310941095109569547953795279518
:100A4000EC85FD853083EE85FF852083188EEC894B
:100A5000FD89B082EA89FB89808180618083EA898F
:100A6000FB89808188608083EA89FB898081806836
:100A70008083EA89FB8980818F7D8083DF91CF919C
:100A8000FF90EF90DF90CF90BF9008951F920F924C
:100A90000FB60F9211242F938F939F93EF93FF9391
:100AA000E0914301F09144018081E0914901F0918E
:100AB0004A0182FD12C0908180914C018F5F8F733B
:100AC00020914D01821751F0E0914C01F0E0ED5C76
:100AD000FE4F958F80934C0101C08081FF91EF9173
:100AE0009F918F912F910F900FBE0F901F9018958F
:100AF0001F920F920FB60F9211242F933F934F9393
:100B00005F936F937F938F939F93AF93BF93EF9375
:100B1000FF9383E391E00E943C04FF91EF91BF912A
:100B2000AF919F918F917F916F915F914F913F9185
:100B30002F910F900FBE0F901F90189583E391E0B7
:100B40000E94010421E0892B09F420E0822F0895FE
:100B5000109236011092350188EE93E0A0E0B0E0EB
:100B60008093370190933801A0933901B0933A01F3
:100B700084E091E0909334018093330185EC90E020
:100B80009093400180933F0184EC90E09093420168
:100B90008093410180EC90E0909344018093430165
:100BA00081EC90E0909346018093450182EC90E0C7
:100BB000909348018093470186EC90E090934A011E
:100BC0008093490110924C0110924D0110924E01F8
:100BD00010924F010895CF92DF92EF92FF920F9300
:100BE0001F93CF93DF937C016A01EB0100E010E0DB
:100BF0000C151D0571F06991D701ED91FC910190E3
:100C0000F081E02DC7010995892B19F00F5F1F4F67
:100C1000EFCFC801DF91CF911F910F91FF90EF901F
:100C2000DF90CF90089508950E942E030E9413062E
:100C30000E949200CEE2D4E00E94A3002097E1F34C
:100C40000E942E04F9CF089597FB072E16F4009406
:100C500007D077FD09D00E947F0607FC05D03EF43F
:100C6000909581959F4F0895709561957F4F089558
:100C7000A1E21A2EAA1BBB1BFD010DC0AA1FBB1FA0
:100C8000EE1FFF1FA217B307E407F50720F0A21B12
:100C9000B30BE40BF50B661F771F881F991F1A947F
:100CA00069F760957095809590959B01AC01BD01A9
:100CB000CF010895052E97FB1EF400940E94710643
:100CC00057FD07D00E94380607FC03D04EF40C9461
:100CD000710650954095309521953F4F4F4F5F4F8E
:100CE000089590958095709561957F4F8F4F9F4F98
:100CF0000895EE0FFF1F0590F491E02D0994AA1BB3
:100D0000BB1B51E107C0AA1FBB1FA617B70710F0F6
:100D1000A61BB70B881F991F5A95A9F78095909528
:0A0D2000BC01CD010895F894FFCF47
:100D2A00000000007F04EB0501041A040C045D04B2
:00000001FF
