:100000000C9464000C948C000C948C000C94BD0235
:100010000C94BD020C94BD020C948C000C948C00CA
:100020000C948C000C948C000C948C000C948C0020
:100030000C948C000C948C000C948C000C948C0010
:100040000C9453060C948C000C940C090C943E09EF
:100050000C948C000C948C000C948C000C948C00F0
:100060000C948C000C948C0000000008000201002D
:100070000003040700000000000000000102040863
:100080001020408001020408102001020408102002
:10009000040404040404040402020202020203032E
:1000A00003030303000000002300260029000000D2
:1000B0000000250028002B0000000000240027007D
:1000C0002A00AB006E09B80011241FBECFEFD8E0A4
:1000D000DEBFCDBF11E0A0E0B1E0E8E3FFE102C088
:1000E00005900D92A83AB107D9F722E0A8EAB1E04D
:1000F00001C01D92A03DB207E1F710E0C6ECD0E0D0
:1001000004C02297FE010E944A0DC23CD107C9F7E4
:100110000E94CF0C0C948F0F0C94000026E040E856
:1001200055E260E070E08FE292E00E94AA0840E8A9
:1001300055E260E070E089EB91E00E94C00364E664
:1001400070E080E090E00E94CC066AE071E08FE20F
:1001500092E00C941C0A20E04AE06BE089EB91E00D
:100160000E94900369EB71E088EA91E00C944E04E0
:1001700083EB91E00E94390B89EB91E00C943703FB
:10018000CF93DF93CDB7DEB762970FB6F894DEBF9B
:100190000FBECDBF88EA91E00E94A4059093DB01D9
:1001A0008093DA0168EA71E0CE010D960E9439066B
:1001B00088EA91E00E94D1059093E1018093E001EB
:1001C00088EA91E00E94DB059093DF018093DE01D5
:1001D00088EA91E00E94B5059093D9018093D801F7
:1001E00088EA91E00E94C6059093DD018093DC01CE
:1001F0008091DA019091DB01019681F069E171E073
:100200008FE292E00E94FD096091DA017091DB01BA
:100210004AE050E08FE292E00E94D90A8091D80132
:100220009091D901019601F162E271E08FE292E0D2
:100230000E94FD096091D8017091D9014AE050E017
:100240008FE292E00E94D10A6EE271E08FE292E0CA
:100250000E94FD096091DC017091DD014AE050E0EF
:100260008FE292E00E94D90A2091080130910901A1
:100270008091E0019091E1012817390759F420910C
:100280000601309107018091DE019091DF0128176E
:10029000390781F167E371E08FE292E00E94FD0986
:1002A0006091E0017091E1014AE050E08FE292E05C
:1002B0000E94D10A62E471E08FE292E00E94FD099F
:1002C0006091DE017091DF014AE050E08FE292E040
:1002D0000E94D90A8091E0019091E1019093090177
:1002E000809308018091DE019091DF0190930701D6
:1002F000809306016AE971E0CE010D960E94AF0C71
:10030000811107C0BE01635F7F4F8FE292E00E94C0
:100310000A0A8FE292E00E94C707892BE1F1E0917F
:100320002F02F09130020280F381E02D46E050E090
:100330006EE471E08FE292E009956FE272E0CE0127
:1003400007960E941F0BBE01695F7F4FCE01019689
:100350000E940A0CBE016F5F7F4F88EA91E00E9405
:100360001606CE0101960E94390BBE01695F7F4FD0
:100370008FE292E00E94EF09E0912F02F0913002AB
:100380000190F081E02D6AE08FE292E00995CE01C4
:1003900007960E94390BCE010D960E94390B62968A
:1003A0000FB6F894DEBF0FBECDBFDF91CF91089599
:1003B000209124023091250228173907B9F4909131
:1003C000E2018091E301981789F0E091E201F0E009
:1003D000EC51FE4F80812091E20130E02F5F3F4FD2
:1003E0002F7333272093E20190E008958FEF9FEF62
:1003F00008951F93CF93DF93DC015C968D919C91C0
:100400005D97009749F481E090E013969C938E935A
:10041000129780E090E03BC05196ED91FC9152978D
:1004200050962C915097322F30951FB75E964C9175
:100430005E9741FB772770F941FD6095F894408104
:10044000772311F0422B01C043234083EC01219715
:10045000F1F748E0508160FF02C0522B01C05323E6
:100460005083EC012197F1F76695415099F780810F
:10047000772311F0832301C0822B80831FBF5C96FA
:100480008D919C915D970197F1F781E090E0DF916C
:10049000CF911F9108950895209124023091250253
:1004A0002817390781F49091E2018091E3019817B0
:1004B00051F0E091E201F0E0EC51FE4F808199278C
:1004C00087FD909508958FEF9FEF08952091240266
:1004D000309125022817390771F48091E3012091AA
:1004E000E20190E0805C9F4F821B910960E470E024
:1004F0000E94DF0C089580E090E00895E0912402CE
:10050000F0912502E817F90769F4A389B4899C9151
:100510008589809589238C9310922502109224025C
:1005200081E0089580E00895CF93DF93EC018A8DF8
:100530009B8D892BF1F080912402909125028C17DC
:100540009D07B9F0009711F00E947E028E8D8E7F7C
:100550008E8F1092E3011092E201D0932502C09396
:100560002402EB89FC8980819D89892B808381E02D
:1005700001C080E0DF91CF9108951F920F920FB6D6
:100580000F9211242F933F934F935F936F937F9319
:100590008F939F93AF93BF93EF93FF93E0912402C8
:1005A000F0912502309709F451C0868DA685B78554
:1005B000958581FF04C08C91892329F447C08C91D3
:1005C000892309F043C0A389B4899C9185898095CA
:1005D00089238C93868997890197F1F7208D318D36
:1005E000A685B785758558E040E0C9010197F1F708
:1005F000842F90E095958795482F6C91672309F09B
:100600004068515091F7868D81FD40958091E301BE
:1006100090E001968F7399272091E201281749F005
:10062000A091E301B0E0AC51BE4F4C938093E30145
:1006300003C0868D8160868F828D938D0197F1F73F
:10064000A389B4898C919589892B8C93FF91EF9123
:10065000BF91AF919F918F917F916F915F914F91DA
:100660003F912F910F900FBE0F901F90189529E585
:1006700031E0FC01318320830C947E021F93CF93E1
:10068000DF93EC01162F6E8D6695617081E068270F
:10069000812F0E94910761E0812F0E945807812FCE
:1006A00090E0FC01E458FF4FE491E88BFC01E05737
:1006B000FF4FE491F0E0EE0FFF1FE255FF4F8591F1
:1006C00094919A8B898BDF91CF911F9108951F93FD
:1006D000CF93DF93EC01162F60E0812F0E94580723
:1006E0008E8D81FD04C061E0812F0E9491071C87DF
:1006F000812F90E0FC01E458FF4FE491ED87FC016D
:10070000E057FF4FE491F0E0EE0FFF1FEC55FF4F75
:10071000859194919F878E87DF91CF911F91089546
:10072000FF920F931F93CF93DF93EC01F62E522F7E
:100730001B821A8208EE13E020E030E00C831D8358
:100740002E833F8389E591E0998388831F8A1E8ADF
:10075000198E188E1B8E1A8E1D8E1C8E8E8D8E7F7E
:1007600050FB81F98E8F642FCE010E943E036F2DC6
:10077000CE01DF91CF911F910F91FF900C946703F1
:10078000CF93DF93EC019A01AB011B8E1A8E198E69
:10079000188E1F8A1E8A60E079E08DE390E00E9447
:1007A000150DC9012430310520F0B90163507109DC
:1007B00002C061E070E07D8F6C8FEC85E63108F05F
:1007C00068C0B901769567956431710518F0635179
:1007D000710902C061E070E07F8B6E8B069718F0A4
:1007E000C901059702C081E090E0998F888FC90107
:1007F000880F991F820F931F9695879596958795D9
:100800008D30910510F00C9702C081E090E09B8F35
:100810008A8F20916800E83050F091E0EE3008F4C3
:1008200090E081E001C0880F9A95EAF701C084E06A
:10083000822B809368002C85283038F02E3040F0D1
:10084000263148F48CE690E008C08DE690E005C0C3
:100850008BE690E002C080E090E09C8B8B8B283090
:1008600030F481E001C0880F2A95EAF70DC0822F8D
:1008700090E02E3010F4089701C00E9791E001C06F
:10088000990F8A95EAF7892F8D8B8C8D9D8D019715
:10089000F1F7CE01DF91CF910C949402FC017183AA
:1008A0006083158281E3868387838FEF80878187CA
:1008B00082876AE971E0CF010B960C94A70BCF9267
:1008C000DF92EF92FF920F931F93CF93DF93EC0190
:1008D0008B016AE971E00E94A70B0E949D060E94AD
:1008E0009D066B017C010E949D066C197D098E0995
:1008F0009F096838734181059105E8F4D8018D910D
:100900009C91DC01ED91FC910480F581E02D09952D
:10091000892B49F3F80180819181DC01ED91FC91F3
:100920000680F781E02D09958A3F29F0682FCE01D6
:100930000E947B0CD8CFCE01DF91CF911F910F91F8
:10094000FF90EF90DF90CF900895FC012581223039
:1009500039F0E20FF11D62832F5FFC0125830895BA
:1009600065E671E08FE292E00C941C0ACF92DF9270
:10097000EF92FF92CF93DF93EC010E949D066B01F3
:100980007C010E949D066C197D098E099F09643FB8
:10099000714081059105D8F488819981DC01ED9140
:1009A000FC910480F581E02D0995892B51F3888114
:1009B0009981DC01ED91FC910680F781E02D09958C
:1009C0008A3F29F0682FCE010E94A504DACFDF917B
:1009D000CF91FF90EF90DF90CF900895FC0145817B
:1009E00020E030E05FEFFC01241730F4E20FF31F4A
:1009F00052832F5F3F4FF7CF15820895CF93DF9338
:100A0000EC010E94B6048A818E838B818F83CE0194
:100A1000DF91CF910C94EE04CF93DF93EC010E9411
:100A2000B6048A818A87CE01DF91CF910C94EE04BF
:100A3000CF93DF93EC010E94B6048A8189878B8172
:100A40008887CE01DF91CF910C94EE040F931F9312
:100A5000CF93DF9300D000D000D0CDB7DEB78C01AC
:100A6000BC01CE0101960E945F04BE016F5F7F4F03
:100A7000C8010B960E94130CCE0101960E94390BFF
:100A8000C8010E94EE0426960FB6F894DEBF0FBE92
:100A9000CDBFDF91CF911F910F9108951F93CF93F9
:100AA000DF93EC0188819981DC01ED91FC91048058
:100AB000F581E02D099511E01816190684F010E073
:100AC0000EC088819981DC01ED91FC910680F7814F
:100AD000E02D09958B3F81F4CE010E94FE048881B0
:100AE0009981DC01ED91FC910480F581E02D09955F
:100AF0001816190634F323C08C3F21F4CE010E944E
:100B00000C05EDCF8D3F21F4CE010E941805E7CFF3
:100B10008E3F21F4CE010E942605E1CF8F3F21F4C4
:100B2000CE010E94EE04DBCF893FC9F64AE050E0D7
:100B300069EF70E0888199810E94D10AD0CF812F1E
:100B4000DF91CF911F910895CF93DF93EC010E9425
:100B50004E058A859FEF9A878F3F11F090E002C083
:100B60008FEF9FEFDF91CF910895CF93DF93EC014B
:100B70000E944E0589859FEF99878F3F11F090E085
:100B800002C08FEF9FEFDF91CF910895FC01808528
:100B90009FEF90878F3F11F090E008958FEF9FEFC8
:100BA0000895CF93DF93EC010E944E058E8190E073
:100BB000DF91CF910895CF93DF93EC010E944E0512
:100BC0008F8190E0DF91CF910895EF92FF920F9384
:100BD0001F93CF93DF9300D000D000D0CDB7DEB706
:100BE0008C017B0168EFCE0101960E94370CB701A2
:100BF000CE0101960E948E0C6AEF0E94A10CBC01EE
:100C0000F801808191810E94EF09CE0101960E9436
:100C1000390B26960FB6F894DEBF0FBECDBFDF911D
:100C2000CF911F910F91FF90EF9008950F931F9315
:100C3000CF93DF9300D000D000D0CDB7DEB78C01CA
:100C4000CE0101960E940A0CBE016F5F7F4FC80162
:100C50000E94E505CE0101960E94390B26960FB63B
:100C6000F894DEBF0FBECDBFDF91CF911F910F91E2
:100C700008950F931F93CF93DF93EC018B01CB016A
:100C80000E944E05055F1F4FB801CE010E940A0C5D
:100C90006AE971E0C8010E941F0CCE01DF91CF917B
:100CA0001F910F9108951F920F920FB60F9211246A
:100CB0002F933F938F939F93AF93BF93809127027E
:100CC00090912802A0912902B0912A023091260227
:100CD00023E0230F2D3720F40196A11DB11D05C07F
:100CE00026E8230F0296A11DB11D209326028093B2
:100CF000270290932802A0932902B0932A028091A0
:100D00002B0290912C02A0912D02B0912E020196FF
:100D1000A11DB11D80932B0290932C02A0932D0254
:100D2000B0932E02BF91AF919F918F913F912F91E0
:100D30000F900FBE0F901F9018952FB7F8946091E9
:100D40002702709128028091290290912A022FBFD8
:100D500008953FB7F89480912B0290912C02A091B6
:100D60002D02B0912E0226B5A89B05C02F3F19F089
:100D70000196A11DB11D3FBF6627782F892F9A2F9D
:100D8000620F711D811D911D42E0660F771F881F44
:100D9000991F4A95D1F70895CF92DF92EF92FF9273
:100DA000CF93DF936B017C010E94A906EB01C11474
:100DB000D104E104F10489F00E94DE0C0E94A9062E
:100DC0006C1B7D0B683E734090F381E0C81AD1081C
:100DD000E108F108C851DC4FEACFDF91CF91FF90D5
:100DE000EF90DF90CF900895789484B5826084BDB1
:100DF00084B5816084BD85B5826085BD85B581601F
:100E000085BDEEE6F0E0808181608083E1E8F0E07E
:100E10001082808182608083808181608083E0E8AD
:100E2000F0E0808181608083E1EBF0E0808184608C
:100E30008083E0EBF0E0808181608083EAE7F0E08E
:100E400080818460808380818260808380818160F2
:100E500080838081806880831092C10008958330F0
:100E600081F028F4813099F08230A1F00895873024
:100E7000A9F08830B9F08430D1F4809180008F7D62
:100E800003C0809180008F7780938000089584B59F
:100E90008F7702C084B58F7D84BD08958091B000A6
:100EA0008F7703C08091B0008F7D8093B00008954C
:100EB000CF93DF9390E0FC01E458FF4F2491FC01B5
:100EC000E057FF4F8491882349F190E0880F991FE4
:100ED000FC01E854FF4FA591B49182559F4FFC014E
:100EE000C591D4919FB7611108C0F8948C91209559
:100EF00082238C93888182230AC0623051F4F89453
:100F00008C91322F309583238C938881822B888318
:100F100004C0F8948C91822B8C939FBFDF91CF916A
:100F200008950F931F93CF93DF931F92CDB7DEB732
:100F3000282F30E0F901E859FF4F8491F901E45876
:100F4000FF4F1491F901E057FF4F04910023C9F0BE
:100F5000882321F069830E942F076981E02FF0E048
:100F6000EE0FFF1FE255FF4FA591B4919FB7F89484
:100F70008C91611103C01095812301C0812B8C934A
:100F80009FBF0F90DF91CF911F910F910895FC01AA
:100F9000818D228D90E0805C9F4F821B91098F7321
:100FA00099270895FC01918D828D981731F0828DDB
:100FB000E80FF11D858D90E008958FEF9FEF089564
:100FC000FC01918D828D981761F0828DDF01A80F51
:100FD000B11D5D968C91928D9F5F9F73928F90E073
:100FE00008958FEF9FEF089584E699E0892B49F0EB
:100FF00080E090E0892B29F00E94640981110C9413
:1010000000000895FC01848DDF01A80FB11DA35AD3
:10101000BF4F2C91848D90E001968F739927848F18
:10102000A689B7892C93A089B1898C9180648C930F
:10103000938D848D981306C00288F389E02D8081FA
:101040008F7D80830895CF93DF93EC01888D882373
:10105000C9F0EA89FB89808185FD05C0A889B98925
:101060008C9186FD0FC00FB607FCF5CF808185FF00
:10107000F2CFA889B9898C9185FFEDCFCE010E946E
:101080000208E7CFDF91CF910895CF92DF92FF92D0
:101090000F931F93CF93DF931F92CDB7DEB76C01F1
:1010A00081E0D60158968C9358975B969C915B97FC
:1010B0005C968C915C97981307C05096ED91FC91CB
:1010C0005197808185FD2EC0F601038D10E00F5FE2
:1010D0001F4F0F731127F02EF601848DF81211C0E7
:1010E0000FB607FCF9CFD6015096ED91FC915197C0
:1010F000808185FFF1CFC60169830E940208698162
:10110000EBCF838DE80FF11DE35AFF4F6083D601CB
:101110005B960C935B975296ED91FC91539780816F
:1011200080620CC0D6015696ED91FC915797608372
:101130005096ED91FC91519780818064808381E08D
:1011400090E00F90DF91CF911F910F91FF90DF9072
:10115000CF900895BF92CF92DF92EF92FF92CF93FC
:10116000DF93EC016A017B01B22EE889F98982E004
:101170008083411581EE580761057105A1F060E09B
:1011800079E08DE390E0A70196010E94F30C2150D5
:1011900031094109510956954795379527952115EC
:1011A00080E1380798F0E889F989108260E874E8EE
:1011B0008EE190E0A70196010E94F30C21503109C5
:1011C000410951095695479537952795EC85FD8539
:1011D0003083EE85FF852083188EEC89FD89B082EF
:1011E000EA89FB89808180618083EA89FB8980812B
:1011F00088608083EA89FB89808180688083EA89AE
:10120000FB8980818F7D8083DF91CF91FF90EF906C
:10121000DF90CF90BF9008951F920F920FB60F925C
:1012200011242F938F939F93EF93FF93E0913F02AD
:10123000F09140028081E0914502F091460282FDEA
:1012400012C09081809148028F5F8F732091490274
:10125000821751F0E0914802F0E0E15DFD4F958F7B
:101260008093480201C08081FF91EF919F918F91FF
:101270002F910F900FBE0F901F9018951F920F92F5
:101280000FB60F9211242F933F934F935F936F9359
:101290007F938F939F93AF93BF93EF93FF938FE2CF
:1012A00092E00E940208FF91EF91BF91AF919F9150
:1012B0008F917F916F915F914F913F912F910F90FF
:1012C0000FBE0F901F9018958FE292E00E94C70703
:1012D00021E0892B09F420E0822F08951092320238
:1012E0001092310288EE93E0A0E0B0E080933302E8
:1012F00090933402A0933502B09336028CE891E0CB
:101300009093300280932F0285EC90E090933C0202
:1013100080933B0284EC90E090933E0280933D02E8
:1013200080EC90E09093400280933F0281EC90E04B
:10133000909342028093410282EC90E090934402A9
:101340008093430286EC90E090934602809345029E
:10135000109248021092490210924A0210924B02D7
:101360000895CF92DF92EF92FF920F931F93CF9346
:10137000DF937C016A01EB0100E010E00C151D0514
:1013800071F06991D701ED91FC910190F081E02D10
:10139000C7010995892B19F00F5F1F4FEFCFC801C7
:1013A000DF91CF911F910F91FF90EF90DF90CF9041
:1013B00008956115710581F0DB010D900020E9F7BA
:1013C000AD0141505109461B570BDC01ED91FC91D9
:1013D0000280F381E02D099480E090E00895DC0123
:1013E000ED91FC91DB0114964D915C9115976D91F7
:1013F0007C910280F381E02D09940C94D909DC01E1
:10140000ED91FC910190F081E02D099468E971E083
:101410000C94D9090F931F93CF93DF93EC010E9493
:10142000EF098C01CE010E94060A800F911FDF9107
:10143000CF911F910F9108950F931F93CF93DF9337
:10144000EC010E94D9098C01CE010E94060A800F8E
:10145000911FDF91CF911F910F9108958F929F92CD
:10146000AF92BF92CF92DF92EF92FF920F931F93B2
:10147000CF93DF93CDB7DEB7A1970FB6F894DEBF59
:101480000FBECDBF7C01C42EE52FCB01D22E19A2F9
:1014900021E02D1510F02AE0D22E8E010F5D1F4F96
:1014A0008D2C912CA12CB12C6C2D7E2FA50194019B
:1014B0000E94F30C8C2DD29E801911240150110929
:1014C0008A3014F4805D01C0895CF80180832115A5
:1014D00031054105510521F0C22EE32FCA01E4CFA9
:1014E000B801C7010E94D909A1960FB6F894DEBFD2
:1014F0000FBECDBFDF91CF911F910F91FF90EF9065
:10150000DF90CF90BF90AF909F908F900895CF9233
:10151000DF92EF92FF920F931F93CF93DF93EC0133
:101520006A017B012115310579F4E881F981019087
:10153000F081E02D642FDF91CF911F910F91FF90EB
:10154000EF90DF90CF9009942A303105E9F477FFCE
:101550001AC06DE20E94FF098C0144275527BA0189
:101560004C195D096E097F092AE0CE010E942E0AFE
:10157000800F911FDF91CF911F910F91FF90EF90FE
:10158000DF90CF9008952AE0B701A601CE01DF9148
:10159000CF911F910F91FF90EF90DF90CF900C941F
:1015A0002E0A9A01AB01662757FD6095762F0C94A1
:1015B000870A0F931F93CF93DF93EC019A01AB013E
:1015C000662757FD6095762F0E94870A8C01CE0111
:1015D0000E94060A800F911FDF91CF911F910F91FA
:1015E00008950F931F93CF93DF93EC010E949D0604
:1015F000688779878A879B87E881F9810680F781E8
:10160000E02DCE01099597FF15C00E949D06088523
:1016100019852A853B85601B710B820B930B0C810E
:101620001D812E813F81601771078207930720F388
:101630008FEF9FEFDF91CF911F910F9108950F933F
:101640001F93CF93DF93EC018B016AE971E00E9455
:10165000A70BC8010E94F10A97FD05C0682FCE01B3
:101660000E947B0CF6CFCE01DF91CF911F910F919D
:101670000895FC01808191810C94E60DCF93DF9356
:10168000EC0188819981009711F00E94E60D198282
:1016900018821D821C821B821A82DF91CF910895CD
:1016A0000F931F93CF93DF93EC018B016F5F7F4FFD
:1016B000888199810E94750E009731F09983888303
:1016C0001B830A8381E001C080E0DF91CF911F91ED
:1016D0000F910895CF93DF93EC0188819981892B35
:1016E00029F08A819B818617970760F4CE010E94BA
:1016F000500B882341F08C819D81892B19F4E8815E
:10170000F981108281E0DF91CF910895EF92FF92ED
:101710000F931F93CF93DF93EC017B018A01BA01F2
:101720000E946A0B811104C0CE010E943E0B07C0CB
:101730001D830C83B701888199810E94510FCE01CE
:10174000DF91CF911F910F91FF90EF900895FC01D1
:101750001182108213821282158214826115710522
:1017600059F0FB0101900020E9F7AF014150510908
:10177000461B570B0C94860B08950F931F93CF9322
:10178000DF938C01EB01FC0180819181009799F03E
:10179000428153812C813D814217530750F068816B
:1017A00079810E94510F8C819D81F80195838483FA
:1017B00013C00E94E60D88819981F801918380838E
:1017C0008A819B81938382838C819D81958384838D
:1017D000198218821B821A821D821C82DF91CF918E
:1017E0001F910F910895CF93DF93EC01FB018617B2
:1017F000970761F0608171816115710529F044815D
:1018000055810E94860B02C00E943E0BCE01DF91E3
:10181000CF910895FC0111821082138212821582E9
:1018200014820C94F30BCF93DF93EC018617970788
:1018300011F00E94BD0BCE01DF91CF910895CF939F
:10184000DF93EC016115710561F0FB01019000204F
:10185000E9F7AF0141505109461B570B0E94860B17
:1018600002C00E943E0BCE01DF91CF910895CF932D
:10187000DF9300D0CDB7DEB7FC0111821082138256
:1018800012821582148269831A82BE016F5F7F4FB4
:101890000E941F0C0F900F90DF91CF910895EF924F
:1018A000FF920F931F93CF93DF93EC017B010C8189
:1018B0001D816115710511F480E016C041155105B7
:1018C00091F0040F151FB8010E946A0B8823A1F341
:1018D000288139818C819D81B701820F931F0E94DD
:1018E000510F1D830C8381E0DF91CF911F910F91E8
:1018F000FF90EF900895CF93DF9300D0CDB7DEB780
:1019000069831A8241E050E0BE016F5F7F4F0E9401
:101910004F0C0F900F90DF91CF910895CF93DF93ED
:10192000EC01FB0144815581608171810E944F0C63
:10193000811103C0CE010E943E0BCE01DF91CF91F9
:101940000895CF93DF93EC010E947B0C811103C0BB
:10195000CE010E943E0BCE01DF91CF910895FC0194
:1019600024813581232B31F421E061157105A1F02B
:10197000FB0108C0FC01808191816115710531F482
:1019800021E0FC018081882339F005C00E94480FC6
:1019900021E0892B09F020E0822F089508950E940C
:1019A000F4060E94CE0C0E948E00C4EFD7E00E9485
:1019B000C0002097E1F30E94F407F9CF089597FB48
:1019C000072E16F4009407D077FD09D00E94340D3D
:1019D00007FC05D03EF4909581959F4F0895709532
:1019E00061957F4F0895A1E21A2EAA1BBB1BFD0132
:1019F0000DC0AA1FBB1FEE1FFF1FA217B307E407EE
:101A0000F50720F0A21BB30BE40BF50B661F771F45
:101A1000881F991F1A9469F7609570958095909525
:101A20009B01AC01BD01CF010895052E97FB1EF46B
:101A300000940E942C0D57FD07D00E94F30C07FC68
:101A400003D04EF40C942C0D509540953095219573
:101A50003F4F4F4F5F4F08959095809570956195DA
:101A60007F4F8F4F9F4F0895AA1BBB1B51E107C0AB
:101A7000AA1FBB1FA617B70710F0A61BB70B881F1E
:101A8000991F5A95A9F780959095BC01CD010895AD
:101A9000EE0FFF1F0590F491E02D0994CF93DF9393
:101AA0008230910510F482E090E0E091CE02F09156
:101AB000CF0220E030E0A0E0B0E0309739F1408183
:101AC000518148175907B8F04817590771F48281B6
:101AD0009381109729F013969C938E9312972CC0A4
:101AE0009093CF028093CE0227C02115310531F0AB
:101AF0004217530718F0A901DB0101C0EF019A0159
:101B0000BD01DF010280F381E02DD7CF2115310522
:101B1000F9F0281B390B2430310580F48A819B8130
:101B20006115710521F0FB019383828304C09093BA
:101B3000CF028093CE02FE01329644C0FE01E20F36
:101B4000F31F8193919322503109398328833AC03E
:101B50002091CC023091CD02232B41F4209102013F
:101B6000309103013093CD022093CC0220910001EB
:101B7000309101012115310541F42DB73EB7409157
:101B8000040150910501241B350BE091CC02F0912A
:101B9000CD02E217F307A0F42E1B3F0B28173907DD
:101BA00078F0AC014E5F5F4F2417350748F04E0FB9
:101BB0005F1F5093CD024093CC028193919302C05A
:101BC000E0E0F0E0CF01DF91CF910895CF93DF9374
:101BD000009709F487C0FC01329713821282C091EA
:101BE000CE02D091CF02209781F420813181280F3D
:101BF000391F8091CC029091CD028217930779F51D
:101C0000F093CD02E093CC026DC0DE0120E030E025
:101C1000AE17BF0750F412964D915C9113979D013A
:101C20004115510509F1DA01F3CFB383A283408155
:101C30005181840F951F8A179B0771F48D919C9198
:101C40001197840F951F02969183808312968D9130
:101C50009C911397938382832115310529F4F09386
:101C6000CF02E093CE023EC0D9011396FC93EE93CF
:101C700012974D915D91A40FB51FEA17FB0779F4F8
:101C800080819181840F951F0296D90111969C93B2
:101C90008E938281938113969C938E931297E0E0AA
:101CA000F0E08A819B81009719F0FE01EC01F9CFE9
:101CB000CE01029628813981820F931F2091CC0298
:101CC0003091CD022817390769F4309729F4109222
:101CD000CF021092CE0202C013821282D093CD02A4
:101CE000C093CC02DF91CF910895A0E0B0E0EBE784
:101CF000FEE00C945C0FEC01CB01209719F40E94DC
:101D00004E0DB8C0FE01E60FF71F9E0122503109AB
:101D1000E217F30708F4ACC0D9010D911C9111979B
:101D200006171707B8F00530110508F49FC0A80181
:101D3000445051094617570708F498C0025011093A
:101D4000061B170B019311936D937C93CF010E9497
:101D5000E60D8CC05B01A01AB10A4E01800E911EE7
:101D6000A091CE02B091CF02612C712C60E070E0A6
:101D7000109709F449C0A815B905C9F5ED90FC9074
:101D80001197670142E0C40ED11CCA14DB0478F13C
:101D900047018A189B08640142E0C40ED11C1296C8
:101DA000BC9012971396AC91B5E0CB16D10440F0DD
:101DB000B282A38391828082D9018D939C9309C0C2
:101DC0000E5F1F4F0E0D1F1DF90111830083EB2DB8
:101DD000FA2F6115710531F0DB011396FC93EE9338
:101DE000129744C0F093CF02E093CE023FC06D91B2
:101DF0007C9111976616770608F43B01BD01129697
:101E00000D90BC91A02DB4CF6091CC027091CD0209
:101E100068157905E9F468167906D0F44091000157
:101E2000509101014115510541F44DB75EB76091E4
:101E3000040170910501461B570BE417F507C0F428
:101E4000F093CD02E093CC02F901918380830EC020
:101E50000E944E0D7C01009759F0A801BE010E941E
:101E60003F0FCE010E94E60DC70104C0CE0102C0A3
:101E700080E090E0CDB7DEB7EEE00C94780FFB0188
:101E8000DC0102C001900D9241505040D8F70895F6
:101E9000FB01DC018D91019080190110D9F3990BA0
:101EA0000895FB01DC0101900D920020E1F70895F7
:101EB0002F923F924F925F926F927F928F929F925A
:101EC000AF92BF92CF92DF92EF92FF920F931F9348
:101ED000CF93DF93CDB7DEB7CA1BDB0B0FB6F894F9
:101EE000DEBF0FBECDBF09942A88398848885F8439
:101EF0006E847D848C849B84AA84B984C884DF80AA
:101F0000EE80FD800C811B81AA81B981CE0FD11D8D
:101F10000FB6F894DEBF0FBECDBFED01089510E0FF
:101F2000C6ECD0E004C0FE010E944A0D2296C83CD7
:081F3000D107C9F7F894FFCFB7
:101F38000000D00280003100310073657475702094
:101F4800636F6D706C65746500427574746F6E3A7A
:101F58002000536C696465722049443A2000095690
:101F6800616C75653A20005468726F74746C653AD8
:101F78002000095374656572696E673A20007365BD
:101F88006E643A200000000000F901B1096602D829
:101F9800014C024B0241726475696E6F426C756543
:101FA8003A205472616E736D697373696F6E206540
:101FB80072726F722E2E2E00000000004508B109C3
:101FC800C707E007D20723080D0A006E616E006993
:081FD8006E66006F76660000E2
:107E0000112484B714BE81FFF0D085E080938100F7
:107E100082E08093C00088E18093C10086E0809377
:107E2000C20080E18093C4008EE0C9D0259A86E02C
:107E300020E33CEF91E0309385002093840096BBD3
:107E4000B09BFECF1D9AA8958150A9F7CC24DD24C4
:107E500088248394B5E0AB2EA1E19A2EF3E0BF2EE7
:107E6000A2D0813461F49FD0082FAFD0023811F036
:107E7000013811F484E001C083E08DD089C08234E0
:107E800011F484E103C0853419F485E0A6D080C0E4
:107E9000853579F488D0E82EFF2485D0082F10E0AE
:107EA000102F00270E291F29000F111F8ED06801E7
:107EB0006FC0863521F484E090D080E0DECF843638
:107EC00009F040C070D06FD0082F6DD080E0C81688
:107ED00080E7D80618F4F601B7BEE895C0E0D1E017
:107EE00062D089930C17E1F7F0E0CF16F0E7DF06D8
:107EF00018F0F601B7BEE89568D007B600FCFDCFD4
:107F0000A601A0E0B1E02C9130E011968C91119780
:107F100090E0982F8827822B932B1296FA010C0160
:107F200087BEE89511244E5F5F4FF1E0A038BF0790
:107F300051F7F601A7BEE89507B600FCFDCF97BE46
:107F4000E89526C08437B1F42ED02DD0F82E2BD052
:107F50003CD0F601EF2C8F010F5F1F4F84911BD097
:107F6000EA94F801C1F70894C11CD11CFA94CF0C13
:107F7000D11C0EC0853739F428D08EE10CD085E9AC
:107F80000AD08FE07ACF813511F488E018D01DD067
:107F900080E101D065CF982F8091C00085FFFCCF94
:107FA0009093C60008958091C00087FFFCCF809118
:107FB000C00084FD01C0A8958091C6000895E0E648
:107FC000F0E098E1908380830895EDDF803219F02E
:107FD00088E0F5DFFFCF84E1DECF1F93182FE3DFCA
:107FE0001150E9F7F2DF1F91089580E0E8DFEE27F6
:047FF000FF270994CA
:027FFE00040479
:0400000300007E007B
:00000001FF
